{
  "contractName": "Create_quiz",
  "abi": [
    {
      "anonymous": false,
      "inputs": [
        {
          "indexed": false,
          "name": "quizId",
          "type": "uint256"
        },
        {
          "indexed": false,
          "name": "quizName",
          "type": "string"
        }
      ],
      "name": "QuizCreated",
      "type": "event",
      "signature": "0xcc7b96a72a2dabf7acdcf4383700e8dc9d44131c1e801647b18f72866ddfe797"
    },
    {
      "constant": false,
      "inputs": [
        {
          "name": "_quizName",
          "type": "string"
        }
      ],
      "name": "createQuiz",
      "outputs": [],
      "payable": false,
      "stateMutability": "nonpayable",
      "type": "function",
      "signature": "0x65641b60"
    },
    {
      "constant": false,
      "inputs": [
        {
          "name": "_quizId",
          "type": "uint256"
        },
        {
          "name": "_questionText",
          "type": "string"
        },
        {
          "name": "_assignedMarks",
          "type": "uint256"
        }
      ],
      "name": "addQuestion",
      "outputs": [],
      "payable": false,
      "stateMutability": "nonpayable",
      "type": "function",
      "signature": "0x3386efc8"
    },
    {
      "constant": true,
      "inputs": [
        {
          "name": "_quizId",
          "type": "uint256"
        }
      ],
      "name": "getQuiz",
      "outputs": [
        {
          "name": "",
          "type": "string"
        },
        {
          "name": "",
          "type": "uint256"
        }
      ],
      "payable": false,
      "stateMutability": "view",
      "type": "function",
      "signature": "0xa3f7e096"
    },
    {
      "constant": true,
      "inputs": [
        {
          "name": "_quizId",
          "type": "uint256"
        },
        {
          "name": "_questionId",
          "type": "uint256"
        }
      ],
      "name": "getQuestion",
      "outputs": [
        {
          "name": "",
          "type": "string"
        },
        {
          "name": "",
          "type": "uint256"
        }
      ],
      "payable": false,
      "stateMutability": "view",
      "type": "function",
      "signature": "0xbc6d8094"
    },
    {
      "constant": true,
      "inputs": [],
      "name": "getAllQuizzes",
      "outputs": [
        {
          "name": "",
          "type": "string[]"
        },
        {
          "name": "",
          "type": "uint256[]"
        }
      ],
      "payable": false,
      "stateMutability": "view",
      "type": "function",
      "signature": "0x6a4af0fa"
    },
    {
      "constant": true,
      "inputs": [],
      "name": "getQuizCount",
      "outputs": [
        {
          "name": "",
          "type": "uint256"
        }
      ],
      "payable": false,
      "stateMutability": "view",
      "type": "function",
      "signature": "0xa34eaa6e"
    },
    {
      "constant": false,
      "inputs": [
        {
          "name": "_quizId",
          "type": "uint256"
        },
        {
          "name": "_questionId",
          "type": "uint256"
        },
        {
          "name": "_imageCid",
          "type": "string"
        }
      ],
      "name": "submitAnswer",
      "outputs": [],
      "payable": false,
      "stateMutability": "nonpayable",
      "type": "function",
      "signature": "0x1bc7980c"
    },
    {
      "constant": true,
      "inputs": [
        {
          "name": "_quizId",
          "type": "uint256"
        },
        {
          "name": "_questionId",
          "type": "uint256"
        }
      ],
      "name": "getAnswerImage",
      "outputs": [
        {
          "name": "",
          "type": "string"
        }
      ],
      "payable": false,
      "stateMutability": "view",
      "type": "function",
      "signature": "0x6935fea3"
    }
  ],
  "bytecode": "0x6080604052600060015534801561001557600080fd5b506111af806100256000396000f3fe60806040526004361061008e576000357c0100000000000000000000000000000000000000000000000000000000900463ffffffff1680631bc7980c146100935780633386efc8146100bc57806365641b60146100e55780636935fea31461010e5780636a4af0fa1461014b578063a34eaa6e14610177578063a3f7e096146101a2578063bc6d8094146101e0575b600080fd5b34801561009f57600080fd5b506100ba60048036036100b59190810190610d28565b61021e565b005b3480156100c857600080fd5b506100e360048036036100de9190810190610c85565b610319565b005b3480156100f157600080fd5b5061010c60048036036101079190810190610c1b565b61043d565b005b34801561011a57600080fd5b5061013560048036036101309190810190610cec565b6104b9565b6040516101429190610f78565b60405180910390f35b34801561015757600080fd5b5061016061063d565b60405161016e929190610f41565b60405180910390f35b34801561018357600080fd5b5061018c6107c1565b604051610199919061100a565b60405180910390f35b3480156101ae57600080fd5b506101c960048036036101c49190810190610c5c565b6107cb565b6040516101d7929190610f9a565b60405180910390f35b3480156101ec57600080fd5b5061020760048036036102029190810190610cec565b6108e8565b604051610215929190610f9a565b60405180910390f35b60015483101515610264576040517f08c379a000000000000000000000000000000000000000000000000000000000815260040161025b90610fea565b60405180910390fd5b600080848152602001908152602001600020600201600083815260200190815260200160002060009054906101000a900460ff1615156102d9576040517f08c379a00000000000000000000000000000000000000000000000000000000081526004016102d090610fca565b60405180910390fd5b8060008085815260200190815260200160002060030160008481526020019081526020016000209080519060200190610313929190610a8c565b50505050565b6001548310151561035f576040517f08c379a000000000000000000000000000000000000000000000000000000000815260040161035690610fea565b60405180910390fd5b6000808481526020019081526020016000206001016040805190810160405280848152602001838152509080600181540180825580915050906001820390600052602060002090600202016000909192909190915060008201518160000190805190602001906103d0929190610b0c565b50602082015181600101555050506001600080858152602001908152602001600020600201600060016000808881526020019081526020016000206001018054905003815260200190815260200160002060006101000a81548160ff021916908315150217905550505050565b8060008060015481526020019081526020016000206000019080519060200190610468929190610a8c565b507fcc7b96a72a2dabf7acdcf4383700e8dc9d44131c1e801647b18f72866ddfe7976001548260405161049c929190611025565b60405180910390a160016000815480929190600101919050555050565b606060015483101515610501576040517f08c379a00000000000000000000000000000000000000000000000000000000081526004016104f890610fea565b60405180910390fd5b600080848152602001908152602001600020600201600083815260200190815260200160002060009054906101000a900460ff161515610576576040517f08c379a000000000000000000000000000000000000000000000000000000000815260040161056d90610fca565b60405180910390fd5b60008084815260200190815260200160002060030160008381526020019081526020016000208054600181600116156101000203166002900480601f0160208091040260200160405190810160405280929190818152602001828054600181600116156101000203166002900480156106305780601f1061060557610100808354040283529160200191610630565b820191906000526020600020905b81548152906001019060200180831161061357829003601f168201915b5050505050905092915050565b606080606060015460405190808252806020026020018201604052801561067857816020015b60608152602001906001900390816106635790505b50905060606001546040519080825280602002602001820160405280156106ae5781602001602082028038833980820191505090505b50905060008090505b6001548110156107b4576000808281526020019081526020016000206000018054600181600116156101000203166002900480601f01602080910402602001604051908101604052809291908181526020018280546001816001161561010002031660029004801561076a5780601f1061073f5761010080835404028352916020019161076a565b820191906000526020600020905b81548152906001019060200180831161074d57829003601f168201915b5050505050838281518110151561077d57fe5b9060200190602002018190525080828281518110151561079957fe5b906020019060200201818152505080806001019150506106b7565b5081819350935050509091565b6000600154905090565b6060600060015483101515610815576040517f08c379a000000000000000000000000000000000000000000000000000000000815260040161080c90610fea565b60405180910390fd5b60008084815260200190815260200160002060000160008085815260200190815260200160002060010180549050818054600181600116156101000203166002900480601f0160208091040260200160405190810160405280929190818152602001828054600181600116156101000203166002900480156108d85780601f106108ad576101008083540402835291602001916108d8565b820191906000526020600020905b8154815290600101906020018083116108bb57829003601f168201915b5050505050915091509150915091565b6060600060015484101515610932576040517f08c379a000000000000000000000000000000000000000000000000000000000815260040161092990610fea565b60405180910390fd5b600080858152602001908152602001600020600201600084815260200190815260200160002060009054906101000a900460ff1615156109a7576040517f08c379a000000000000000000000000000000000000000000000000000000000815260040161099e90610fca565b60405180910390fd5b6000806000868152602001908152602001600020600101848154811015156109cb57fe5b90600052602060002090600202019050806000018160010154818054600181600116156101000203166002900480601f016020809104026020016040519081016040528092919081815260200182805460018160011615610100020316600290048015610a795780601f10610a4e57610100808354040283529160200191610a79565b820191906000526020600020905b815481529060010190602001808311610a5c57829003601f168201915b5050505050915092509250509250929050565b828054600181600116156101000203166002900490600052602060002090601f016020900481019282601f10610acd57805160ff1916838001178555610afb565b82800160010185558215610afb579182015b82811115610afa578251825591602001919060010190610adf565b5b509050610b089190610b8c565b5090565b828054600181600116156101000203166002900490600052602060002090601f016020900481019282601f10610b4d57805160ff1916838001178555610b7b565b82800160010185558215610b7b579182015b82811115610b7a578251825591602001919060010190610b5f565b5b509050610b889190610b8c565b5090565b610bae91905b80821115610baa576000816000905550600101610b92565b5090565b90565b600082601f8301121515610bc457600080fd5b8135610bd7610bd282611082565b611055565b91508082526020830160208301858383011115610bf357600080fd5b610bfe838284611122565b50505092915050565b6000610c138235611118565b905092915050565b600060208284031215610c2d57600080fd5b600082013567ffffffffffffffff811115610c4757600080fd5b610c5384828501610bb1565b91505092915050565b600060208284031215610c6e57600080fd5b6000610c7c84828501610c07565b91505092915050565b600080600060608486031215610c9a57600080fd5b6000610ca886828701610c07565b935050602084013567ffffffffffffffff811115610cc557600080fd5b610cd186828701610bb1565b9250506040610ce286828701610c07565b9150509250925092565b60008060408385031215610cff57600080fd5b6000610d0d85828601610c07565b9250506020610d1e85828601610c07565b9150509250929050565b600080600060608486031215610d3d57600080fd5b6000610d4b86828701610c07565b9350506020610d5c86828701610c07565b925050604084013567ffffffffffffffff811115610d7957600080fd5b610d8586828701610bb1565b9150509250925092565b6000610d9a826110c8565b80845260208401935083602082028501610db3856110ae565b60005b84811015610dec578383038852610dce838351610e8e565b9250610dd9826110f4565b9150602088019750600181019050610db6565b508196508694505050505092915050565b6000610e08826110d3565b808452602084019350610e1a836110bb565b60005b82811015610e4c57610e30868351610f32565b610e3982611101565b9150602086019550600181019050610e1d565b50849250505092915050565b6000610e63826110e9565b808452610e77816020860160208601611131565b610e8081611164565b602085010191505092915050565b6000610e99826110de565b808452610ead816020860160208601611131565b610eb681611164565b602085010191505092915050565b6000601782527f5175657374696f6e20646f6573206e6f742065786973740000000000000000006020830152604082019050919050565b6000601382527f5175697a20646f6573206e6f74206578697374000000000000000000000000006020830152604082019050919050565b610f3b8161110e565b82525050565b60006040820190508181036000830152610f5b8185610d8f565b90508181036020830152610f6f8184610dfd565b90509392505050565b60006020820190508181036000830152610f928184610e58565b905092915050565b60006040820190508181036000830152610fb48185610e58565b9050610fc36020830184610f32565b9392505050565b60006020820190508181036000830152610fe381610ec4565b9050919050565b6000602082019050818103600083015261100381610efb565b9050919050565b600060208201905061101f6000830184610f32565b92915050565b600060408201905061103a6000830185610f32565b818103602083015261104c8184610e58565b90509392505050565b6000604051905081810181811067ffffffffffffffff8211171561107857600080fd5b8060405250919050565b600067ffffffffffffffff82111561109957600080fd5b601f19601f8301169050602081019050919050565b6000602082019050919050565b6000602082019050919050565b600081519050919050565b600081519050919050565b600081519050919050565b600081519050919050565b6000602082019050919050565b6000602082019050919050565b6000819050919050565b6000819050919050565b82818337600083830152505050565b60005b8381101561114f578082015181840152602081019050611134565b8381111561115e576000848401525b50505050565b6000601f19601f830116905091905056fea265627a7a7230582002e1378c87ea3d6ecbf741201a575b0ebd2d678ccb6a5800cf182ad49305bde36c6578706572696d656e74616cf50037",
  "source": "// SPDX-License-Identifier: MIT\r\npragma solidity >=0.4.22 <0.9.0;\r\npragma experimental ABIEncoderV2;\r\n\r\ncontract Create_quiz {\r\n    struct Question {\r\n        string text;\r\n        uint assignedMarks;\r\n    }\r\n\r\n    struct QuizData {\r\n        string quizName;\r\n        Question[] questions;\r\n        mapping(uint => bool) questionExists;\r\n        mapping(uint => string) answerImages; // Mapping to store answer images URLs or IPFS CIDs\r\n    }\r\n\r\n    mapping(uint => QuizData) private quizzes;\r\n    uint private quizCount = 0;\r\n\r\n    // Event for quiz creation\r\n    event QuizCreated(uint quizId, string quizName);\r\n\r\n    // Function to create a quiz\r\n    function createQuiz(string memory _quizName) public {\r\n        quizzes[quizCount].quizName = _quizName;\r\n        emit QuizCreated(quizCount, _quizName);\r\n        quizCount++;\r\n    }\r\n\r\n    // Function to add a question to a quiz\r\n    function addQuestion(uint _quizId, string memory _questionText, uint _assignedMarks) public {\r\n        require(_quizId < quizCount, \"Quiz does not exist\");\r\n        quizzes[_quizId].questions.push(Question(_questionText, _assignedMarks));\r\n        quizzes[_quizId].questionExists[quizzes[_quizId].questions.length - 1] = true;\r\n    }\r\n\r\n    // Function to get quiz details\r\n    function getQuiz(uint _quizId) public view returns (string memory, uint) {\r\n        require(_quizId < quizCount, \"Quiz does not exist\");\r\n        return (quizzes[_quizId].quizName, quizzes[_quizId].questions.length);\r\n    }\r\n\r\n    // Function to get a question from a quiz\r\n    function getQuestion(uint _quizId, uint _questionId) public view returns (string memory, uint) {\r\n        require(_quizId < quizCount, \"Quiz does not exist\");\r\n        require(quizzes[_quizId].questionExists[_questionId], \"Question does not exist\");\r\n        Question storage question = quizzes[_quizId].questions[_questionId];\r\n        return (question.text, question.assignedMarks);\r\n    }\r\n\r\n    // Function to get all quiz names and IDs\r\n    function getAllQuizzes() public view returns (string[] memory, uint[] memory) {\r\n        string[] memory names = new string[](quizCount);\r\n        uint[] memory ids = new uint[](quizCount);\r\n        for (uint i = 0; i < quizCount; i++) {\r\n            names[i] = quizzes[i].quizName;\r\n            ids[i] = i;\r\n        }\r\n        return (names, ids);\r\n    }\r\n\r\n    // New function to get the quiz count\r\n    function getQuizCount() public view returns (uint) {\r\n        return quizCount;\r\n    }\r\n\r\n    // New function to submit an answer image (IPFS CID)\r\n    function submitAnswer(uint _quizId, uint _questionId, string memory _imageCid) public {\r\n        require(_quizId < quizCount, \"Quiz does not exist\");\r\n        require(quizzes[_quizId].questionExists[_questionId], \"Question does not exist\");\r\n        quizzes[_quizId].answerImages[_questionId] = _imageCid;\r\n    }\r\n\r\n    // New function to get the submitted answer image (IPFS CID)\r\n    function getAnswerImage(uint _quizId, uint _questionId) public view returns (string memory) {\r\n        require(_quizId < quizCount, \"Quiz does not exist\");\r\n        require(quizzes[_quizId].questionExists[_questionId], \"Question does not exist\");\r\n        return quizzes[_quizId].answerImages[_questionId];\r\n    }\r\n}\r\n",
  "sourcePath": "C:/Users/Kavyasri/OneDrive/Documents/6th sem/block/block assignment/quiz_project/contracts/Create_quiz.sol",
  "compiler": {
    "name": "solc",
    "version": "0.5.0+commit.1d4f565a.Emscripten.clang"
  },
  "schemaVersion": "3.0.2",
  "updatedAt": "2024-05-17T04:00:38.853Z",
  "devdoc": {
    "methods": {}
  },
  "userdoc": {
    "methods": {}
  }
}