{
  "contractName": "Quiz",
  "abi": [
    {
      "constant": true,
      "inputs": [
        {
          "name": "",
          "type": "uint256"
        }
      ],
      "name": "questionToOwner",
      "outputs": [
        {
          "name": "",
          "type": "address"
        }
      ],
      "payable": false,
      "stateMutability": "view",
      "type": "function",
      "signature": "0x1ebe0a51"
    },
    {
      "constant": true,
      "inputs": [
        {
          "name": "",
          "type": "uint256"
        }
      ],
      "name": "questions",
      "outputs": [
        {
          "name": "question",
          "type": "string"
        },
        {
          "name": "correctOptionIndex",
          "type": "uint256"
        }
      ],
      "payable": false,
      "stateMutability": "view",
      "type": "function",
      "signature": "0x31b1b978"
    },
    {
      "anonymous": false,
      "inputs": [
        {
          "indexed": false,
          "name": "questionId",
          "type": "uint256"
        },
        {
          "indexed": false,
          "name": "question",
          "type": "string"
        }
      ],
      "name": "NewQuestion",
      "type": "event",
      "signature": "0x648fb9288c7f65347f70ccafccfc678bc6d28159c705d4b13b4a9e248c7aa67f"
    },
    {
      "constant": false,
      "inputs": [
        {
          "name": "_question",
          "type": "string"
        },
        {
          "name": "_options",
          "type": "string[]"
        },
        {
          "name": "_correctOptionIndex",
          "type": "uint256"
        }
      ],
      "name": "addQuestion",
      "outputs": [],
      "payable": false,
      "stateMutability": "nonpayable",
      "type": "function",
      "signature": "0x8e67750c"
    },
    {
      "constant": true,
      "inputs": [
        {
          "name": "_questionId",
          "type": "uint256"
        }
      ],
      "name": "getQuestion",
      "outputs": [
        {
          "name": "",
          "type": "string"
        },
        {
          "name": "",
          "type": "string[]"
        }
      ],
      "payable": false,
      "stateMutability": "view",
      "type": "function",
      "signature": "0xdb88176f"
    },
    {
      "constant": true,
      "inputs": [
        {
          "name": "_questionId",
          "type": "uint256"
        },
        {
          "name": "_selectedOptionIndex",
          "type": "uint256"
        }
      ],
      "name": "checkAnswer",
      "outputs": [
        {
          "name": "",
          "type": "bool"
        }
      ],
      "payable": false,
      "stateMutability": "view",
      "type": "function",
      "signature": "0xdbe0957a"
    }
  ],
  "bytecode": "0x608060405234801561001057600080fd5b5061106d806100206000396000f3fe60806040526004361061006d576000357c0100000000000000000000000000000000000000000000000000000000900463ffffffff1680631ebe0a511461007257806331b1b978146100af5780638e67750c146100ed578063db88176f14610116578063dbe0957a14610154575b600080fd5b34801561007e57600080fd5b5061009960048036036100949190810190610a9f565b610191565b6040516100a69190610d59565b60405180910390f35b3480156100bb57600080fd5b506100d660048036036100d19190810190610a9f565b6101c4565b6040516100e4929190610dc6565b60405180910390f35b3480156100f957600080fd5b50610114600480360361010f9190810190610a20565b61028f565b005b34801561012257600080fd5b5061013d60048036036101389190810190610a9f565b610445565b60405161014b929190610d8f565b60405180910390f35b34801561016057600080fd5b5061017b60048036036101769190810190610ac8565b610673565b6040516101889190610d74565b60405180910390f35b60016020528060005260406000206000915054906101000a900473ffffffffffffffffffffffffffffffffffffffff1681565b6000818154811015156101d357fe5b9060005260206000209060030201600091509050806000018054600181600116156101000203166002900480601f01602080910402602001604051908101604052809291908181526020018280546001816001161561010002031660029004801561027f5780601f106102545761010080835404028352916020019161027f565b820191906000526020600020905b81548152906001019060200180831161026257829003601f168201915b5050505050908060020154905082565b60028251101515156102d6576040517f08c379a00000000000000000000000000000000000000000000000000000000081526004016102cd90610df6565b60405180910390fd5b81518110151561031b576040517f08c379a000000000000000000000000000000000000000000000000000000000815260040161031290610e56565b60405180910390fd5b60008080549050905060006060604051908101604052808681526020018581526020018481525090806001815401808255809150509060018203906000526020600020906003020160009091929091909150600082015181600001908051906020019061038992919061074f565b5060208201518160010190805190602001906103a69291906107cf565b5060408201518160020155505050336001600083815260200190815260200160002060006101000a81548173ffffffffffffffffffffffffffffffffffffffff021916908373ffffffffffffffffffffffffffffffffffffffff1602179055507f648fb9288c7f65347f70ccafccfc678bc6d28159c705d4b13b4a9e248c7aa67f8185604051610437929190610e76565b60405180910390a150505050565b60608060008054905083101515610491576040517f08c379a000000000000000000000000000000000000000000000000000000000815260040161048890610e16565b60405180910390fd5b61049961082f565b6000848154811015156104a857fe5b906000526020600020906003020160606040519081016040529081600082018054600181600116156101000203166002900480601f01602080910402602001604051908101604052809291908181526020018280546001816001161561010002031660029004801561055b5780601f106105305761010080835404028352916020019161055b565b820191906000526020600020905b81548152906001019060200180831161053e57829003601f168201915b5050505050815260200160018201805480602002602001604051908101604052809291908181526020016000905b82821015610645578382906000526020600020018054600181600116156101000203166002900480601f0160208091040260200160405190810160405280929190818152602001828054600181600116156101000203166002900480156106315780601f1061060657610100808354040283529160200191610631565b820191906000526020600020905b81548152906001019060200180831161061457829003601f168201915b505050505081526020019060010190610589565b5050505081526020016002820154815250509050806000015181602001518191508090509250925050915091565b60008080549050831015156106bd576040517f08c379a00000000000000000000000000000000000000000000000000000000081526004016106b490610e16565b60405180910390fd5b6000838154811015156106cc57fe5b90600052602060002090600302016001018054905082101515610724576040517f08c379a000000000000000000000000000000000000000000000000000000000815260040161071b90610e36565b60405180910390fd5b60008381548110151561073357fe5b9060005260206000209060030201600201548214905092915050565b828054600181600116156101000203166002900490600052602060002090601f016020900481019282601f1061079057805160ff19168380011785556107be565b828001600101855582156107be579182015b828111156107bd5782518255916020019190600101906107a2565b5b5090506107cb9190610851565b5090565b82805482825590600052602060002090810192821561081e579160200282015b8281111561081d57825182908051906020019061080d92919061074f565b50916020019190600101906107ef565b5b50905061082b9190610876565b5090565b6060604051908101604052806060815260200160608152602001600081525090565b61087391905b8082111561086f576000816000905550600101610857565b5090565b90565b61089f91905b8082111561089b576000818161089291906108a2565b5060010161087c565b5090565b90565b50805460018160011615610100020316600290046000825580601f106108c857506108e7565b601f0160209004906000526020600020908101906108e69190610851565b5b50565b600082601f83011215156108fd57600080fd5b813561091061090b82610ed3565b610ea6565b9150818183526020840193506020810190508360005b83811015610956578135860161093c8882610960565b845260208401935060208301925050600181019050610926565b5050505092915050565b600082601f830112151561097357600080fd5b813561098661098182610efb565b610ea6565b915080825260208301602083018583830111156109a257600080fd5b6109ad838284610fe0565b50505092915050565b600082601f83011215156109c957600080fd5b81356109dc6109d782610f27565b610ea6565b915080825260208301602083018583830111156109f857600080fd5b610a03838284610fe0565b50505092915050565b6000610a188235610fd6565b905092915050565b600080600060608486031215610a3557600080fd5b600084013567ffffffffffffffff811115610a4f57600080fd5b610a5b868287016109b6565b935050602084013567ffffffffffffffff811115610a7857600080fd5b610a84868287016108ea565b9250506040610a9586828701610a0c565b9150509250925092565b600060208284031215610ab157600080fd5b6000610abf84828501610a0c565b91505092915050565b60008060408385031215610adb57600080fd5b6000610ae985828601610a0c565b9250506020610afa85828601610a0c565b9150509250929050565b610b0d81610f8e565b82525050565b6000610b1e82610f60565b80845260208401935083602082028501610b3785610f53565b60005b84811015610b70578383038852610b52838351610bc6565b9250610b5d82610f81565b9150602088019750600181019050610b3a565b508196508694505050505092915050565b610b8a81610fa0565b82525050565b6000610b9b82610f76565b808452610baf816020860160208601610fef565b610bb881611022565b602085010191505092915050565b6000610bd182610f6b565b808452610be5816020860160208601610fef565b610bee81611022565b602085010191505092915050565b6000602182527f4f7074696f6e73206c656e677468206d757374206265206174206c656173742060208301527f32000000000000000000000000000000000000000000000000000000000000006040830152606082019050919050565b6000601982527f5175657374696f6e206964206f7574206f6620626f756e6473000000000000006020830152604082019050919050565b6000602382527f53656c6563746564206f7074696f6e20696e646578206f7574206f6620626f7560208301527f6e647300000000000000000000000000000000000000000000000000000000006040830152606082019050919050565b6000602282527f436f7272656374206f7074696f6e20696e646578206f7574206f6620626f756e60208301527f64730000000000000000000000000000000000000000000000000000000000006040830152606082019050919050565b610d5381610fcc565b82525050565b6000602082019050610d6e6000830184610b04565b92915050565b6000602082019050610d896000830184610b81565b92915050565b60006040820190508181036000830152610da98185610b90565b90508181036020830152610dbd8184610b13565b90509392505050565b60006040820190508181036000830152610de08185610bc6565b9050610def6020830184610d4a565b9392505050565b60006020820190508181036000830152610e0f81610bfc565b9050919050565b60006020820190508181036000830152610e2f81610c59565b9050919050565b60006020820190508181036000830152610e4f81610c90565b9050919050565b60006020820190508181036000830152610e6f81610ced565b9050919050565b6000604082019050610e8b6000830185610d4a565b8181036020830152610e9d8184610b90565b90509392505050565b6000604051905081810181811067ffffffffffffffff82111715610ec957600080fd5b8060405250919050565b600067ffffffffffffffff821115610eea57600080fd5b602082029050602081019050919050565b600067ffffffffffffffff821115610f1257600080fd5b601f19601f8301169050602081019050919050565b600067ffffffffffffffff821115610f3e57600080fd5b601f19601f8301169050602081019050919050565b6000602082019050919050565b600081519050919050565b600081519050919050565b600081519050919050565b6000602082019050919050565b6000610f9982610fac565b9050919050565b60008115159050919050565b600073ffffffffffffffffffffffffffffffffffffffff82169050919050565b6000819050919050565b6000819050919050565b82818337600083830152505050565b60005b8381101561100d578082015181840152602081019050610ff2565b8381111561101c576000848401525b50505050565b6000601f19601f830116905091905056fea265627a7a723058203196b12b97d01b9bfbb21c346fc1ae1c03530b60653af8cd61a1ceedee2c430c6c6578706572696d656e74616cf50037",
  "source": "pragma solidity >=0.4.22 <0.9.0;\r\n\r\npragma experimental ABIEncoderV2; \r\n\r\ncontract Quiz {\r\n    struct Question {\r\n        string question;\r\n        string[] options;\r\n        uint256 correctOptionIndex;\r\n    }\r\n\r\n    Question[] public questions;\r\n    mapping(uint256 => address) public questionToOwner;\r\n\r\n    event NewQuestion(uint256 questionId, string question);\r\n\r\n    function addQuestion(string memory _question, string[] memory _options, uint256 _correctOptionIndex) public {\r\n        require(_options.length >= 2, \"Options length must be at least 2\");\r\n        require(_correctOptionIndex < _options.length, \"Correct option index out of bounds\");\r\n        \r\n        uint256 questionId = questions.length;\r\n        questions.push(Question(_question, _options, _correctOptionIndex));\r\n        questionToOwner[questionId] = msg.sender;\r\n\r\n        emit NewQuestion(questionId, _question);\r\n    }\r\n\r\n    function getQuestion(uint256 _questionId) public view returns (string memory, string[] memory) {\r\n        require(_questionId < questions.length, \"Question id out of bounds\");\r\n\r\n        Question memory q = questions[_questionId];\r\n        return (q.question, q.options);\r\n    }\r\n\r\n    function checkAnswer(uint256 _questionId, uint256 _selectedOptionIndex) public view returns (bool) {\r\n        require(_questionId < questions.length, \"Question id out of bounds\");\r\n        require(_selectedOptionIndex < questions[_questionId].options.length, \"Selected option index out of bounds\");\r\n\r\n        return _selectedOptionIndex == questions[_questionId].correctOptionIndex;\r\n    }\r\n}\r\n",
  "sourcePath": "C:/Users/Kavyasri/OneDrive/Documents/6th sem/block/block assignment/quiz_project/contracts/Quiz.sol",
  "compiler": {
    "name": "solc",
    "version": "0.5.0+commit.1d4f565a.Emscripten.clang"
  },
  "schemaVersion": "3.0.2",
  "updatedAt": "2024-05-17T04:00:38.581Z",
  "devdoc": {
    "methods": {}
  },
  "userdoc": {
    "methods": {}
  }
}