{
  "contractName": "StoreValue",
  "abi": [
    {
      "constant": false,
      "inputs": [
        {
          "name": "v",
          "type": "uint256"
        }
      ],
      "name": "set",
      "outputs": [],
      "payable": false,
      "stateMutability": "nonpayable",
      "type": "function",
      "signature": "0x60fe47b1"
    },
    {
      "constant": true,
      "inputs": [],
      "name": "get",
      "outputs": [
        {
          "name": "",
          "type": "uint256"
        }
      ],
      "payable": false,
      "stateMutability": "view",
      "type": "function",
      "signature": "0x6d4ce63c"
    }
  ],
  "bytecode": "0x608060405234801561001057600080fd5b5060ec8061001f6000396000f3fe6080604052600436106049576000357c0100000000000000000000000000000000000000000000000000000000900463ffffffff16806360fe47b114604e5780636d4ce63c146085575b600080fd5b348015605957600080fd5b50608360048036036020811015606e57600080fd5b810190808035906020019092919050505060ad565b005b348015609057600080fd5b50609760b7565b6040518082815260200191505060405180910390f35b8060008190555050565b6000805490509056fea165627a7a723058202aeb36369daefeac1402654b9b647396330b3a3c123e7ae44ea46c74b60220660029",
  "source": "pragma solidity >=0.4.22 <0.9.0;\r\n\r\ncontract StoreValue {\r\n    uint private value;\r\n\r\n    function set(uint v) public {\r\n        value = v;\r\n    }\r\n\r\n    function get() public view returns (uint) {\r\n        return value;\r\n    }\r\n}\r\n",
  "sourcePath": "C:/Users/Kavyasri/OneDrive/Documents/6th sem/block/block assignment/quiz_project/contracts/StoreValue.sol",
  "compiler": {
    "name": "solc",
    "version": "0.5.0+commit.1d4f565a.Emscripten.clang"
  },
  "schemaVersion": "3.0.2",
  "updatedAt": "2024-05-17T04:00:38.709Z",
  "devdoc": {
    "methods": {}
  },
  "userdoc": {
    "methods": {}
  }
}